:100000000C94BE000C94E6000C94E6000C94E60000
:100010000C94E6000C94E6000C94E6000C94E600C8
:100020000C94E6000C94E6000C94E6000C94E600B8
:100030000C94E6000C94E6000C94E6000C94E600A8
:100040000C9431050C94E6000C94A1050C947B05EE
:100050000C94E6000C94E6000C94E6000C94E60088
:100060000C94E6000C94E600000306090C0F121530
:10007000181C1F2225282B2E303336393C3F414493
:1000800047494C4E515355585A5C5E6062646668ED
:100090006A6C6D6F70727375767778797A7B7C7C19
:1000A0007D7E7E7F7F7F7F7F7F7F7F7F7F7F7E7E66
:1000B0007D7C7C7B7A79787776757372706F6D6CE6
:1000C0006A68666462605E5C5A585553514E4C498A
:1000D0004744413F3C393633302E2B2825221F1C04
:1000E0001815120F0C09060300FDFAF7F4F1EEEBF8
:1000F000E8E4E1DEDBD8D5D2D0CDCAC7C4C1BFBCED
:10010000B9B7B4B2AFADABA8A6A4A2A09E9C9A9872
:1001100096949391908E8D8B8A8988878685848426
:100120008382828181818181000000002400270078
:100130002A0000000008000201000003040700007C
:1001400000000000000001020408102040800102AD
:1001500004081020010204081020000000002500FF
:1001600028002B0004040404040404040202020214
:100170000202030303030303D305040B11241FBE70
:10018000CFEFD8E0DEBFCDBF11E0A0E0B1E0E6EEFA
:10019000FDE102C005900D92A234B107D9F723E02A
:1001A000A2E4B1E001C01D92AE31B207E1F710E068
:1001B000CDEBD0E004C02197FE010E94DA0CCC3BCD
:1001C000D107C9F70E9488060C94E60E0C94000033
:1001D00090E0FC01EE5CFE4F2491FC01EA5BFE4FD7
:1001E0003491FC01EC59FE4FE491EE23B9F0222347
:1001F00039F02330F1F098F4213009F1223019F16F
:10020000F0E0EE0FFF1FE65AFE4FA591B4918FB7B5
:10021000F894EC9130953E233C938FBF089527309E
:10022000A9F02830C9F0243059F7809180008F7DE3
:1002300003C0809180008F7780938000E1CF84B5E8
:100240008F7784BDDDCF84B58F7DFBCF8091B000EB
:100250008F778093B000D4CF8091B0008F7DF9CF9D
:10026000CF92DF92EF92FF920F931F938B01222781
:100270003327C52ED62EE72EFF244C2D50910C038C
:10028000552371F0E52FF0E0E09FB001E19F700D84
:10029000F09F700D1124072F5C9D600111244D2DDE
:1002A000E091120320910D0330910E0350910F0342
:1002B000E51320C0BC01660F771F860F971F820FC2
:1002C000931FE0910F03E80FF92FF11D0083E091D8
:1002D0001003E80FF92FF11D408320911103820FC5
:1002E000911DFC0110821F910F91FF90EF90DF9004
:1002F000CF900895880F991F880F991F820F931F21
:10030000E80FF92FF11D1082DCCFDC0190910C0376
:10031000992361F0699FB0011124672F949FA00178
:100320001124452F929F90011124232F3091120305
:10033000E0910D03F0910E0380910F0338131AC062
:10034000CD01880F991F8A0F9B1F8E0F9F1FE09171
:100350000F03E80FF92FF11D6083E0911003E80F00
:10036000F92FF11D408330911103830F911DFC0182
:1003700020830895CD01880F991F880F991F8E0F34
:100380009F1FFC01E30FF11D1082E1CFCF93DF939C
:1003900090E0FC01EA5BFE4F24918C599E4FFC01DA
:1003A00084918823D1F090E0880F991FFC01E85DCB
:1003B000FE4FA591B491FC01E65AFE4FC591D49130
:1003C00061110EC09FB7F8948C91E22FE0958E23B7
:1003D0008C932881E223E8839FBFDF91CF9108951A
:1003E0008FB7F894EC91E22BEC938FBFF6CF3FB729
:1003F000F89480915D0290915E02A0915F02B091AD
:10040000600226B5A89B05C02F3F19F00196A11DDB
:10041000B11D3FBFBA2FA92F982F8827BC01CD014E
:10042000620F711D811D911D42E0660F771F881FAD
:10043000991F4A95D1F708950F931F93CF93DF9398
:10044000CDB7DEB729970FB6F894DEBF0FBECDBF8C
:1004500080910D0390910E03892B09F47CC00E94BA
:10046000F7010091130310911403209115033091AB
:100470001603601771078207930740F46093130314
:100480007093140380931503909316030091130344
:10049000109114032091150330911603601B710B0A
:1004A000820B930B6C32714081059105C0F2F89478
:1004B00080910803909109039A838983E0910D0349
:1004C000F0910E03DF0111968081898790910403DA
:1004D000E0911703F091180380911903992309F40F
:1004E00045C09081982B98879081809589238F8330
:1004F0008F818C8388E08B8358856F8149853B8110
:100500002C8189819A81508347FD252F3A9520833C
:10051000262F39F0441F00C000006083000000C097
:10052000F2CF38E04D9160830000019761F7F093BE
:100530001803E093170349873B832C839A838983AD
:1005400078940E94F70160931303709314038093CF
:1005500015039093160329960FB6F894DEBF0FBECD
:10056000CDBFDF91CF911F910F9108959081982B6E
:1005700098879081809589238F838F818E8388E0EF
:100580008D8358856F8149853D812E8189819A812E
:10059000508347FD252F00C000C0208300C000C04D
:1005A00000C000C000C060830000262F3A9541F0D3
:1005B000441F000000C000C000C000C000C0E8CF61
:1005C00038E04D9100C0608300C0019709F7F093B7
:1005D0001803E093170349873D832E83AFCF089517
:1005E000AF92BF92CF92DF92EF92FF920F931F9341
:1005F000CF93DF936C017B018B01040F151FEB017F
:100600005E01AE18BF08C017D10759F06991D60135
:10061000ED91FC910190F081E02DC6010995892BA7
:1006200079F7C501DF91CF911F910F91FF90EF9066
:10063000DF90CF90BF90AF900895FC01538D448D13
:10064000252F30E0842F90E0821B930B541710F07D
:10065000CF96089501970895FC01918D828D98178A
:1006600061F0A28DAE0FBF2FB11D5D968C91928D62
:100670009F5F9F73928F90E008958FEF9FEF089593
:10068000FC01918D828D981731F0828DE80FF11D5C
:10069000858D90E008958FEF9FEF0895FC01918D77
:1006A000228D892F90E0805C9F4F821B91098F7370
:1006B0009927089581E692E00E944E0321E0892B5C
:1006C00009F420E0822F089580E090E0892B29F042
:1006D0000E945A0381110C9400000895FC01A48D1E
:1006E000A80FB92FB11DA35ABF4F2C91848D90E054
:1006F00001968F739927848FA689B7892C93A08937
:10070000B1898C91837080648C93938D848D9813C0
:1007100006C00288F389E02D80818F7D8083089553
:10072000EF92FF920F931F93CF93DF93EC0181E041
:10073000888F9B8D8C8D98131AC0E889F9898081E8
:1007400085FF15C09FB7F894EE89FF896083E8891B
:10075000F98980818370806480839FBF81E090E00D
:10076000DF91CF911F910F91FF90EF900895F62E9A
:100770000B8D10E00F5F1F4F0F731127E02E8C8D34
:100780008E110CC00FB607FCFACFE889F989808179
:1007900085FFF5CFCE010E946E03F1CFEB8DEC0FFC
:1007A000FD2FF11DE35AFF4FF0829FB7F8940B8F96
:1007B000EA89FB8980818062CFCFCF93DF93EC0100
:1007C000888D8823B9F0AA89BB89E889F9898C9139
:1007D00085FD03C0808186FD0DC00FB607FCF7CFF5
:1007E0008C9185FFF2CF808185FFEDCFCE010E94F5
:1007F0006E03E9CFDF91CF910895FC018081918153
:10080000009711F00C947C0D08950F931F93CF93D4
:10081000DF938C01EB01FC01808191810097E1F075
:100820006881798161157105A9F0428153812C811C
:100830003D814217530770F00E94DF0E8C819D812D
:10084000F801958384831D821C82DF91CF911F91D3
:100850000F9108950E947C0D88819981F801918300
:1008600080838A819B81938382838C819D81958300
:100870008483198218821B821A82E5CFFC01808151
:100880009181009711F00C94180B60E070E0CB019F
:100890000895CF93DF93FC0124813581232B79F0D8
:1008A000C081D181062E000C770BCE010E94CB0EA9
:1008B000009729F08C1B9D0BDF91CF9108958FEF4E
:1008C0009FEFFACFFC0124813581232B39F421E0FD
:1008D000FB018081882349F020E007C0808191815D
:1008E0000E94D60E21E0892BB9F7822F08950F932D
:1008F0001F93CF93DF93EC0188819981009759F082
:100900002A813B812617370730F081E0DF91CF91B4
:100910001F910F9108958B016F5F7F4F0E94050E0D
:10092000009759F0998388831B830A832C813D812A
:10093000232B59F7FC011082E8CF80E0E7CFEF923C
:10094000FF920F931F93CF93DF93EC017B018A01FA
:10095000BA010E94770428813981811114C02115C0
:10096000310519F0C9010E947C0D198218821D827F
:100970001C821B821A82CE01DF91CF911F910F91B1
:10098000FF90EF9008951D830C83B701C9010E9469
:10099000DF0EF1CFAF92BF92CF92DF92EF92FF9234
:1009A0000F931F93CF93DF93EC016B015A017901F1
:1009B0002417350720F48B2D5901E42EF82E1982C7
:1009C00018821B821A821D821C8250E040E062E382
:1009D00071E0CE010E949F04D60114960D911C91E6
:1009E000A016B10628F5E016F10608F48701D60135
:1009F000ED91FC911197E00FF11FF08010826D9145
:100A00007C916A0D7B1D61157105F1F0FB01019070
:100A10000020E9F73197AF01461B570BCE010E942A
:100A20009F04F60180819181080F191FD801FC9263
:100A3000CE01DF91CF911F910F91FF90EF90DF904A
:100A4000CF90BF90AF90089588819981009711F061
:100A50000E947C0D198218821D821C821B821A82C0
:100A6000E0CF1F920F920FB60F9211242F933F9356
:100A70008F939F93AF93BF938091590290915A02A5
:100A8000A0915B02B0915C023091580223E0230FE9
:100A90002D3758F50196A11DB11D20935802809362
:100AA000590290935A02A0935B02B0935C0280912A
:100AB0005D0290915E02A0915F02B091600201968A
:100AC000A11DB11D80935D0290935E02A0935F0211
:100AD000B0936002BF91AF919F918F913F912F9101
:100AE0000F900FBE0F901F90189526E8230F0296C7
:100AF000A11DB11DD2CF1F920F920FB60F921124DC
:100B00002F933F934F935F936F937F938F939F9315
:100B1000AF93BF93EF93FF9381E692E00E946E0341
:100B2000FF91EF91BF91AF919F918F917F916F91C5
:100B30005F914F913F912F910F900FBE0F901F909B
:100B400018951F920F920FB60F9211242F938F9327
:100B50009F93EF93FF93E0917102F0917202808175
:100B6000E0917702F091780282FD1BC09081809124
:100B70007A028F5F8F7320917B02821741F0E091A0
:100B80007A02F0E0EF59FD4F958F80937A02FF9142
:100B9000EF919F918F912F910F900FBE0F901F900B
:100BA00018958081F4CF109264021092630288EE4F
:100BB00093E0A0E0B0E08093650290936602A0937A
:100BC0006702B09368028BE091E090936202809399
:100BD000610285EC90E090936E0280936D0284EC4C
:100BE00090E09093700280936F0220EC30E030939D
:100BF00072022093710281EC90E0909374028093D2
:100C0000730282EC90E0909376028093750286ECFA
:100C100090E0909378028093770210927A0210927B
:100C20007B0210927C0210927D02109205031092BA
:100C30000C031092130310921403109215031092D8
:100C4000160381E08093120380930F031092100328
:100C500092E090931103809304033093090320934F
:100C6000080380EC90E00E94E00C90930E038093C8
:100C70000D03009709F443C020ECFC0111922A9562
:100C8000E9F780E490E0909307038093060388E0FF
:100C900090E090930B0380930A03809105038823CF
:100CA00039F061E088E00E94C60188E00E94E80017
:100CB000ECE6F1E0E491F0E0EE0FFF1FE65AFE4FA4
:100CC000859194919093180380931703EEE4F1E0DB
:100CD000E491E09319031092FF021092FE02109229
:100CE000010310920003109203031092020350E0DC
:100CF00040E062E371E08EEF92E00C949F0410926A
:100D00000903109208031092070310920603BFCF45
:100D1000CF93DF93CDB7DEB7A0970FB6F894DEBFC1
:100D20000FBECDBF789484B5826084BD84B58160E8
:100D300084BD85B5826085BD85B5816085BD8091A6
:100D40006E00816080936E0010928100809181001E
:100D50008260809381008091810081608093810016
:100D6000809180008160809380008091B1008460D8
:100D70008093B1008091B00081608093B000809139
:100D80007A00846080937A0080917A0082608093F8
:100D90007A0080917A00816080937A0080917A0055
:100DA000806880937A001092C10080910A0390912C
:100DB0000B0397FD07C061E00E94C60180910A0302
:100DC0000E94E80081E08093050360910C03693C78
:100DD00029F120910D0330910E036150C9F070E0AC
:100DE0008FEF98EC0E94C60CF901409108035091D6
:100DF0000903CF01821B930B8417950760F4408190
:100E0000469FC001479F900D112490833196EDCFEE
:100E100070E060E0E9CF89EC80930C030E941C0233
:100E2000E0917102F091720282E08083E0916D02A4
:100E3000F0916E021082E0916F02F09170028FECDF
:100E4000808310927902E0917502F091760286E03B
:100E50008083E0917302F0917402808180618083CD
:100E6000E0917302F0917402808188608083E09148
:100E70007302F0917402808180688083E091730234
:100E8000F091740280818F7D808381E692E00E94E0
:100E90004E03892B09F450C081E692E00E942C0396
:100EA000F82E89831A8200910203109103030F5FC9
:100EB0001F4FB8018EEF92E00E947704882399F0CB
:100EC0002091FE023091FF02809102039091030372
:100ED000BE016F5F7F4F820F931F0E94DF0E109342
:100EE0000303009302032FE2F21226C06AE38EEF9F
:100EF00092E00E9449048C019C0150E040E06EEFBA
:100F000072E0CE0107960E94CA0469E171E0CE0149
:100F100007960E9462048823A1F181E0809300017A
:100F200050E040E062E371E08EEF92E00E949F04A7
:100F3000CE0107960E94FD0380910001882309F4E9
:100F400056C3109257021092560200915602109109
:100F50005702003411050CF02BC1809106039091CB
:100F600007030817190730F420E040E060E0C801EB
:100F70000E9485010F5F1F4F109357020093560286
:100F8000E4CF62E271E0CE0107960E9462048823FA
:100F900019F010920001C4CF6CE271E0CE01079607
:100FA0000E946204882309F4D0C02091020330918A
:100FB000030321503109A8014F5F5F4F6EEF72E0CC
:100FC000CE0101960E94CA04BE016F5F7F4FCE0121
:100FD00007960E940504CE0101960E94FD036CE273
:100FE000CE0107960E9449048C019C0150E040E02C
:100FF000BE01695F7F4FCE0101960E94CA04CE01F7
:1010000001960E943E046B01709357026093560252
:10101000CE0101960E94FD032B853C85A8014F5F00
:101020005F4FBE01695F7F4FCE0101960E94CA04E7
:10103000BE016F5F7F4FCE0107960E940504CE016F
:1010400001960E94FD036CE2CE0107960E944904BE
:101050008C019C0150E040E0BE01695F7F4FCE01F2
:1010600001960E94CA04CE0101960E943E04B62E4B
:10107000CE0101960E94FD032B853C85A8014F5FA0
:101080005F4FBE01695F7F4FCE0101960E94CA0487
:10109000BE016F5F7F4FCE0107960E940504CE010F
:1010A00001960E94FD036CE2CE0107960E9449045E
:1010B0008C019C0150E040E0BE01695F7F4FCE0192
:1010C00001960E94CA04CE0101960E943E04A62EFB
:1010D000CE0101960E94FD032B853C85A8014F5F40
:1010E0005F4FBE01695F7F4FCE0101960E94CA0427
:1010F000BE016F5F7F4FCE0107960E940504CE01AF
:1011000001960E94FD03CE0107960E943E04262F01
:101110008091060390910703C816D90628F44A2D3A
:101120006B2DC6010E94850141E050E06FE371E044
:1011300081E692E00E94F00242E050E060E371E05C
:1011400081E692E00E94F002EBCE63E371E0CE0113
:1011500007960E946204882319F00E941C02E0CEC8
:101160006BE371E0CE0107960E946204882309F4C4
:10117000D7CE10925702109256020091560210914B
:101180005702003411054CF7809106039091070334
:101190000817190730F420E040E060E0C8010E9421
:1011A00085010F5F1F4F1093570200935602E5CF42
:1011B000109257021092560240E48091560290918C
:1011C0005702803891050CF540937C0080917A009D
:1011D000806480937A0080917A0086FDFCCF209114
:1011E0007800309179008091560290915702FC016D
:1011F000EA52FE4F2083FC01EA5AFE4F108201960C
:101200009093570280935602D8CF86ED91E09A8B47
:10121000898BA6E5B1E0B88FAF8B8D01DC0190E042
:1012200080E041E050E020E830E035952795BC01B2
:10123000620F731F60387105C4F7B90161507109FD
:1012400086239723820F931F48175907BCF41196E2
:101250006C9111979C012A523E4FF90170811196B1
:101260007C9311976083F80161819C012A5A3E4F5B
:10127000F9017081F8017183F90160834F5F5F4F5D
:1012800011960F5F1F4F4038510569F627E030E097
:101290003E872D8741E050E0BA01660F771F81E05D
:1012A00090E00D8402C0880F991F0A94E2F79A8F8C
:1012B000898F88E6682E80E0782E30E020E0DA0121
:1012C000AA52BE4FBC8FAB8FCA018A5A9E4F9E8FC7
:1012D0008D8FF301E05CFF4FA591B491F3018591EF
:1012E00094910A2E000CBB0BFD01F595E795FC8B44
:1012F000EB8B8195082E000C990BDC01B595A79519
:10130000BE8BAD8B4B8C5C8C420E531E8D8D9E8D97
:10131000820F931F988B8F87F901EA52FE4FD901F4
:10132000AA5ABE4FB8A3AF8FD2018C90082C000CE4
:101330009908AB89BC89A89DC001A99D900DB89D55
:10134000900D1124AF85B8890C91002E000C110B63
:10135000AD89BE89A09F7001A19FF00CB09FF00CD9
:1013600011246C01CC0CCD2CCC1CDD085701AA0C2F
:10137000AB2CAA1CBB089C2D9A1986FBCC24C0F868
:10138000C90EE6FAEE24E0F8CE188B899C89809F7E
:101390007001819FF00C909FF00C1124A89D80019A
:1013A000A99D100DB89D100D11244801880C892CA1
:1013B000881C99085701AA0CAB2CAA1CBB08A80CC6
:1013C000E6FAEE24E0F8AE0C06FB002700F90A0D61
:1013D000AF8DB8A12C90022C000C330835942794C3
:1013E0008081082E000C990B95958795982F9C1954
:1013F000D2019C93922D901BAF85B8899C93C80E07
:10140000C082020DAF8DB8A10C93460E571E8F857A
:101410009889860F971F988B8F87E60FF71FA60F67
:10142000B71FB8A3AF8FCF01865D9140803891057B
:101430000CF47ACF2F5F3F4FA98DBA8D6A0E7B1EB9
:101440002417350709F045CF2D853E8521503109F8
:101450003E872D87AB01232B09F01ECFE6E1EE2E50
:10146000E2E0FE2E89899A89E816F90609F1DC0185
:101470008D91BA8BA98BEF89F88D6191F88FEF8BE5
:101480006602B00111248802600D711D1124072E1F
:10149000000C880B990B0E94560B0E94710C098955
:1014A0001A89015011090E94350CD8016C93DACFCA
:1014B000109257021092560270E1272E312C0091A3
:1014C000560210915702003111050CF08EC0F80140
:1014D000EE0FFF1FEE0FFF1FEA52FE4F8181928138
:1014E000890F9081890F9381890FF801EA5BFE4F84
:1014F0007F018F310CF06EC08083D7016C91062E76
:10150000000C770B880B990B24E0660F771F881F60
:10151000991F2A95D1F72EE130E040E050E00E947B
:10152000BD0B2901F70120833FE0A32EB12CA01AA7
:10153000B10AB0924501A092440110924301109269
:101540004201450144E0880C991C4A95E1F761018C
:10155000C01AD10A54E0CC0CDD1C5A95E1F7F1E039
:10156000CF1AD10821E0A222BB24E0904201F090E2
:101570004301E414F50494F540E05FEF60E070E0AF
:1015800035E0E316F10464F040E05FEF6FEF70E0E8
:101590008AE0E816F10424F040E050E06FEF70E0DC
:1015A0002091060330910703C6018E199F09A114EB
:1015B000B10419F4C701880D991D8217930710F41F
:1015C0000E9430019FEFE91AF90AF0924301E0927C
:1015D0004201CBCFEEE1D701EC938FCF0F5F1F4FCE
:1015E00010935702009356026ACF0E941C0280E0BB
:1015F00090E0892B09F449CC0E945A03882309F40E
:1016000044CC0E94000041CC8EEF92E00E94FD038A
:1016100080910D0390910E030E947C0D80910A032E
:1016200090910B0397FD03C060E00C94C6010895F0
:101630001F93FC0199278827BC01E894119110326F
:10164000E9F3193010F01E30C8F31B3251F01D328F
:1016500049F4689406C00E943F0B610F711D811D03
:10166000911D119110531A30B0F33EF4909580956E
:10167000709561957F4F8F4F9F4F1F910895592F00
:10168000482F372F262F660F771F881F991F660F49
:10169000771F881F991F620F731F841F951F660F86
:1016A000771F881F991F0895E89409C097FB3EF49F
:1016B00090958095709561957F4F8F4F9F4F99239F
:1016C000A9F0F92F96E9BB279395F695879577951D
:1016D0006795B795F111F8CFFAF4BB0F11F460FFDD
:1016E0001BC06F5F7F4F8F4F9F4F16C0882311F035
:1016F00096E911C0772321F09EE8872F762F05C049
:10170000662371F096E8862F70E060E02AF09A95E3
:10171000660F771F881FDAF7880F9695879597F9D8
:1017200008959FEF80EC089557FD9058440F551F82
:1017300059F05F3F71F04795880F97FB991F61F053
:101740009F3F79F087950895121613061406551FCA
:10175000F2CF4695F1DF08C0161617061806991F36
:10176000F1CF86957105610508940895E894BB272B
:1017700066277727CB0197F90895052E97FB1EF46E
:1017800000940E94D40B57FD07D00E94130C07FC55
:1017900003D04EF40C94D40B509540953095219580
:1017A0003F4F4F4F5F4F089590958095709561958D
:1017B0007F4F8F4F9F4F08952F923F924F925F928E
:1017C0006F927F928F929F92AF92BF92CF92DF9251
:1017D000EF92FF920F931F93CF93DF93CDB7DEB7B6
:1017E000CA1BDB0B0FB6F894DEBF0FBECDBF09944A
:1017F0002A88398848885F846E847D848C849B84A1
:10180000AA84B984C884DF80EE80FD800C811B81AE
:10181000AA81B981CE0FD11D0FB6F894DEBF0FBEDD
:10182000CDBFED010895A1E21A2EAA1BBB1BFD013D
:101830000DC0AA1FBB1FEE1FFF1FA217B307E407AF
:10184000F50720F0A21BB30BE40BF50B661F771F07
:10185000881F991F1A9469F76095709580959095E7
:101860009B01AC01BD01CF0108950E943C0C68941E
:10187000B1110C94B70B08950E949C0B88F09F57F0
:1018800098F0B92F9927B751B0F0E1F0660F771FA4
:10189000881F991F1AF0BA95C9F714C0B13091F09A
:1018A0000E94B60BB1E008950C94B60B672F782F09
:1018B0008827B85F39F0B93FCCF38695779567955F
:1018C000B395D9F73EF490958095709561957F4FCB
:1018D0008F4F9F4F089519F416F40C94910B0C94AC
:1018E000B10C0E949C0BB8F39923C9F3B6F39F5730
:1018F000550B87FF0E94BF0C0024A0E640EA900130
:1019000080585695979528F4805C660F771F881F3E
:1019100020F026173707480730F4621B730B840B3F
:10192000202931294A2BA695179407942025312583
:101930004A2758F7660F771F881F20F026173707AA
:10194000480730F4620B730B840B200D311D411DD1
:10195000A09581F7B901842F9158880F96958795A6
:1019600008959F3F31F0915020F4879577956795C2
:10197000B795880F911D9695879597F90895915081
:101980005040660F771F881FD2F70895AA1BBB1B14
:1019900051E107C0AA1FBB1FA617B70710F0A61B6F
:1019A000B70B881F991F5A95A9F780959095BC0190
:1019B000CD010895EE0FFF1F0590F491E02D0994DD
:1019C0000F931F93CF93DF938230910510F482E041
:1019D00090E0E0911C03F0911D0330E020E0B0E0C6
:1019E000A0E0309799F42115310509F44AC0281B6D
:1019F000390B24303105D8F58A819B816115710539
:101A000089F1FB0193838283FE0111C040815181E2
:101A10000281138148175907E0F04817590799F4D4
:101A2000109761F012960C93129713961C933296AE
:101A3000CF01DF91CF911F910F91089500931C0367
:101A400010931D03F4CF2115310551F042175307B0
:101A500038F0A901DB019A01BD01DF01F801C1CF16
:101A6000EF01F9CF90931D0380931C03CDCFFE01AE
:101A7000E20FF31F81939193225031093983288318
:101A8000D7CF20911A0330911B03232B41F42091CF
:101A900003013091040130931B0320931A0320911A
:101AA0000101309102012115310541F42DB73EB7F6
:101AB0004091050150910601241B350BE0911A035A
:101AC000F0911B03E217F307A0F42E1B3F0B28171E
:101AD000390778F0AC014E5F5F4F2417350748F0A7
:101AE0004E0F5F1F50931B0340931A0381939193F2
:101AF0009FCFF0E0E0E09CCFCF93DF930097E9F039
:101B0000FC01329713821282A0911C03B0911D0335
:101B1000ED0130E020E01097A1F420813181820FA7
:101B2000931F20911A0330911B032817390709F0DE
:101B300061C0F0931B03E0931A03DF91CF910895E6
:101B4000EA01CE17DF07E8F54A815B819E01411566
:101B50005105B1F7E901FB83EA8349915991C40F1B
:101B6000D51FEC17FD0761F4808191810296840FE7
:101B7000951FE90199838883828193819B838A835E
:101B8000F0E0E0E012968D919C9113970097B9F5E3
:101B90002D913C911197CD010296820F931F2091B8
:101BA0001A0330911B032817390739F6309751F57E
:101BB00010921D0310921C03B0931B03A0931A03F1
:101BC000BCCFD383C28340815181840F951FC81736
:101BD000D90761F44E5F5F4F88819981480F591F83
:101BE000518340838A819B819383828321153105B0
:101BF00009F0B0CFF0931D03E0931C039ECFFD01CD
:101C0000DC01C0CF13821282D7CFB0E0A0E0EBE0BE
:101C1000FEE00C94DE0B8C01009751F4CB010E9486
:101C2000E00C8C01C801CDB7DEB7E0E10C94FA0BF3
:101C3000FC01E60FF71F9C0122503109E217F30760
:101C400008F49DC0D901CD91DC911197C617D70733
:101C500098F0C530D10530F3CE0104978617970769
:101C600008F3C61BD70B2297C193D1936D937C9336
:101C7000CF010E947C0DD6CF5B01AC1ABD0A4C018E
:101C80008C0E9D1EA0911C03B0911D03512C412C64
:101C9000F12CE12C109731F580911A0390911B03E0
:101CA0008815990509F05CC04616570608F058C01B
:101CB0008091010190910201009741F48DB79EB788
:101CC0004091050150910601841B950BE817F90717
:101CD00008F055C0F0931B03E0931A03F9017183D8
:101CE0006083A0CF8D919C91119712966C90129762
:101CF00013967C901397A815B90559F56C0142E02D
:101D0000C40ED11CCA14DB0420F1AC014A195B09D2
:101D1000DA011296159780F06282738251834083B4
:101D2000D9016D937C93E114F10471F0D7011396FE
:101D3000FC93EE93129776CF22968C0F9D1FF9019C
:101D400091838083F301EFCFF0931D03E0931C0395
:101D500069CF4816590608F42C017D01D3019ACFAA
:101D6000CB010E94E00C7C01009749F0AE01B80164
:101D70000E94C20EC8010E947C0D870153CF10E063
:101D800000E050CFFB01DC0102C001900D924150F8
:101D90005040D8F70895FC018191861721F08823DF
:101DA000D9F7992708953197CF010895FB01DC01F8
:101DB0008D91019080190110D9F3990B0895FB01C1
:101DC000DC0101900D920020E1F7089510E0CDEBC9
:101DD000D0E004C0FE010E94DA0C2196CE3BD10770
:061DE000C9F7F894FFCFE3
:101DE6000100001E038000000000009003F0021DA9
:101DF60003DD034E032C034003656E61626C65458B
:101E0600710064697361626C65457100696D670094
:101E16000D0A0073686F77496D6700636C656172C0
:021E26000000BA
:00000001FF
