:100000000C9415030C943D030C943D030C943D0398
:100010000C943D030C943D030C943D030C943D0360
:100020000C943D030C943D030C943D030C943D0350
:100030000C943D030C943D030C943D030C943D0340
:100040000C94B00D0C943D030C943D030C943D03B3
:100050000C943D030C943D030C943D030C943D0320
:100060000C94FA0D0C943D0300000000003E5B4F21
:100070005B3E3E6B4F6B3E1C3E7C3E1C183C7E3C08
:10008000181C577D571C1C5E7F5E1C00183C180016
:10009000FFE7C3E7FF0018241800FFE7DBE7FF30A6
:1000A000483A060E2629792926407F050507407F14
:1000B00005253F5A3CE73C5A7F3E1C1C08081C1C87
:1000C0003E7F14227F22145F5F005F5F06097F017D
:1000D0007F006689956A606060606094A2FFA29468
:1000E00008047E040810207E201008082A1C080836
:1000F0001C2A08081E101010100C1E0C1E0C303884
:100100003E3830060E3E0E06000000000000005F84
:1001100000000007000700147F147F14242A7F2AA0
:100120001223130864623649562050000807030062
:10013000001C2241000041221C002A1C7F1C2A08AE
:10014000083E080800807030000808080808000011
:1001500060600020100804023E5149453E00427F85
:10016000400072494949462141494D331814127FD4
:100170001027454545393C4A494931412111090774
:100180003649494936464949291E000014000000F5
:1001900040340000000814224114141414140041C7
:1001A00022140802015909063E415D594E7C121184
:1001B000127C7F494949363E414141227F414141BC
:1001C0003E7F494949417F090909013E4141517337
:1001D0007F0808087F00417F41002040413F017FA8
:1001E000081422417F404040407F021C027F7F0470
:1001F00008107F3E4141413E7F090909063E4151B9
:10020000215E7F09192946264949493203017F01A8
:10021000033F4040403F1F2040201F3F4038403FA9
:10022000631408146303047804036159494D4300BF
:100230007F4141410204081020004141417F0402F6
:10024000010204404040404000030708002054548D
:1002500078407F284444383844444428384444286B
:100260007F385454541800087E090218A4A49C78BE
:100270007F0804047800447D40002040403D007F1A
:100280001028440000417F40007C047804787C08FA
:100290000404783844444438FC18242418182424CE
:1002A00018FC7C08040408485454542404043F44B3
:1002B000243C4040207C1C2040201C3C4030403CE2
:1002C00044281028444C9090907C4464544C440042
:1002D00008364100000077000000413608000201A6
:1002E0000204023C2623263C1EA1A161123A404092
:1002F000207A38545455592155557941225454780F
:1003000042215554784020545579400C1E527212A7
:100310003955555559395454545939555454580030
:1003200000457C410002457D420001457C407D1234
:1003300011127DF0282528F07C5455450020545496
:100340007C547C0A097F4932494949323A44444441
:100350003A324A4848303A4141217A3A424020787C
:10036000009DA0A07D3D4242423D3D4040403D3C7D
:1003700024FF2424487E4943662B2FFC2F2BFF09A2
:1003800029F620C0887E0903205454794100004496
:100390007D413048484A32384040227A007A0A0A81
:1003A000727D0D19317D2629292F282629292926F4
:1003B00030484D4020380808080808080808382F39
:1003C00010C8ACBA2F102834FA00007B00000814C3
:1003D0002A142222142A14085500550055AA55AA99
:1003E00055AAFF55FF55FF000000FF00101010FF39
:1003F00000141414FF001010FF00FF1010F010F094
:10040000141414FC001414F700FF0000FF00FF1484
:1004100014F404FC141417101F10101F101F1414D0
:10042000141F00101010F0000000001F101010101A
:100430001F10101010F010000000FF10101010100E
:1004400010101010FF10000000FF140000FF00FF4C
:1004500000001F10170000FC04F4141417101714E8
:1004600014F404F40000FF00F7141414141414140A
:10047000F700F7141414171410101F101F1414147D
:10048000F4141010F010F000001F101F0000001FE7
:1004900014000000FC140000F010F01010FF10FF1A
:1004A000141414FF141010101F00000000F010FFAF
:1004B000FFFFFFFFF0F0F0F0F0FFFFFF0000000093
:1004C00000FFFF0F0F0F0F0F3844443844FC4A4A17
:1004D0004A347E02020606027E027E0263554941CC
:1004E000633844443C04407E201E2006027E020203
:1004F00099A5E7A5991C2A492A1C4C7201724C3017
:100500004A4D4D303048784830BC625A463D3E49ED
:100510004949007E0101017E2A2A2A2A2A44445F91
:10052000444440514A444040444A51400000FF0185
:1005300003E080FF000008086B6B08361236243693
:10054000060F090F060000181800000010100030F8
:1005500040FF0101001F01011E00191D1712003C80
:100560003C3C3C00000000000001020304050608BA
:10057000090A0B0D0E1012131517191B1D20222529
:10058000272A2D3033373A3E4145494D52565B5F5D
:1005900064696E74797F858B91979DA4ABB2B9C065
:1005A000C7CFD6DEE6EEF7FF000102030507090B11
:1005B0000E1114181D22282E363D464F59646F7CAB
:1005C0008997A6B6C7D9EBFF48656C6C6F20776F2B
:1005D000726C64210000000000240027002A000043
:1005E00000000800020100000304070000000000F2
:1005F00000000001020408102040800102040810DD
:100600002001020408102000000000250028002B13
:1006100000040404040404040402020202020203AB
:10062000030303030300150F161111241FBECFEFA0
:10063000D8E0DEBFCDBF11E0A0E0B1E0E0E8F5E238
:1006400002C005900D92A236B107D9F722E0A2E6CA
:10065000B1E001C01D92A732B207E1F713E0C4E197
:10066000D3E004C02197FE010E948311C331D1075A
:10067000C9F70E94ED0F0C94B3120C94000090E0A7
:10068000FC01E152FA4F2491FC01ED50FA4F3491F4
:10069000FC01EF5EF94FE491EE23C9F0222339F01B
:1006A000233001F1A8F4213019F1223029F1F0E0D2
:1006B000EE0FFF1FE95FF94FA591B4918FB7F89442
:1006C000EC91611126C030953E233C938FBF089575
:1006D0002730A9F02830C9F0243049F780918000F4
:1006E0008F7D03C0809180008F7780938000DFCF63
:1006F00084B58F7784BDDBCF84B58F7DFBCF8091B0
:10070000B0008F778093B000D2CF8091B0008F7D02
:10071000F9CF3E2BDACFCF93DF9390E0FC01ED5081
:10072000FA4F24918F5E994FFC0184918823D1F078
:1007300090E0880F991FFC01EB52FA4FA591B491FC
:10074000FC01E95FF94FC591D49161110EC09FB7CB
:10075000F8948C91E22FE0958E238C932881E223EC
:10076000E8839FBFDF91CF9108958FB7F894EC9104
:10077000E22BEC938FBFF6CF3FB7F8948091DA016C
:100780009091DB01A091DC01B091DD0126B5A89B21
:1007900005C02F3F19F00196A11DB11D3FBFBA2F13
:1007A000A92F982F8827BC01CD01620F711D811DD3
:1007B000911D42E0660F771F881F991F4A95D1F758
:1007C00008950F931F93CF93DF93CDB7DEB729978B
:1007D0000FB6F894DEBF0FBECDBF0E94BC030091E0
:1007E0001002109111022091120230911302601731
:1007F00071078207930740F460931002709311020F
:100800008093120290931302009110021091110232
:100810002091120230911302601B710B820B930B1B
:100820006C32714081059105C0F2F8948091050207
:10083000909106029A838983E0910A02F0910B025B
:10084000DF0111968081898790910102E091140265
:10085000F091150280911602992309F445C0908108
:10086000982B98879081809589238F838F818C83A3
:1008700088E08B8358856F8149853B812C818981F4
:100880009A81508347FD252F3A952083262F39F0F2
:10089000441F00C000006083000000C0F2CF38E0B9
:1008A0004D9160830000019761F7F0931502E0938A
:1008B000140249873B832C839A83898378940E940E
:1008C000BC03609310027093110280931202909304
:1008D000130229960FB6F894DEBF0FBECDBFDF918D
:1008E000CF911F910F9108959081982B98879081B7
:1008F000809589238F838F818E8388E08D835885AF
:100900006F8149853D812E8189819A81508347FD80
:10091000252F00C000C0208300C000C000C000C060
:1009200000C060830000262F3A9541F0441F00006C
:1009300000C000C000C000C000C0E8CF38E04D914A
:1009400000C0608300C0019709F7F0931502E0939F
:10095000140249873D832E83AFCF8F929F92AF922F
:10096000BF92CF92DF92EF92FF924B015C010E9407
:10097000BC036B017C010E94BC036C197D098E09CC
:100980009F09683E734081059105A8F321E0821A12
:100990009108A108B10888EEC80E83E0D81EE11CBA
:1009A000F11C81149104A104B10429F7FF90EF9088
:1009B000DF90CF90BF90AF909F908F900895AF92AF
:1009C000BF92CF92DF92EF92FF920F931F93CF933C
:1009D000DF936C017B018B01040F151FEB015E019E
:1009E000AE18BF08C017D10759F06991D601ED9133
:1009F000FC910190F081E02DC6010995892B79F7D2
:100A0000C501DF91CF911F910F91FF90EF90DF9083
:100A1000CF90BF90AF9008958F929F92AF92BF9268
:100A2000CF92DF92EF92FF921F93CF93DF93FC015F
:100A30004A01AA24BB24C82DC32ED42EE52EFF24A0
:100A40001C2DD22F8085882361F0889E40011124BF
:100A5000C92D8C9D600111241D2D829FD001112470
:100A6000DB2FA685E184F2849385A91322C0CB01F4
:100A7000880F991F680F791F6E0D7F1DA385A60F24
:100A8000B72FB11DCC93A485A60FB72FB11D1C9312
:100A90008585680F711DFB01D083DF91CF911F9178
:100AA000FF90EF90DF90CF90BF90AF909F908F908E
:100AB0000895660F771F660F771F6E0D7F1D252F18
:100AC000332744275527882349F090E0829F7001FF
:100AD000839FF00C929FF00C11242F2DA60FB72F9F
:100AE000B11D2C93CBCFFC01EF2FFF27E695E695A8
:100AF000E695E855FA4F2491FC0135E0F695E79527
:100B00003A95E1F7EF73FF27E859FA4F64918F7137
:100B10009927FC01E855FA4FE49170E090E080E0FD
:100B2000982F872F762F6627822B6E2B08958F9212
:100B30009F92AF92BF92CF92DF92EF92FF920F936C
:100B40001F93CF93DF938C01CB01F80124AD2223B7
:100B5000F1F080AC91ACA2ACB3ACF801E58CF68CB2
:100B6000D0E0C0E06801FBE1CF0ED11CCE15DF055F
:100B700099F0F801858D968DC817D90730F4A50135
:100B80009401BE01C6010E940C052196EFCF0E9480
:100B900073054B015C01E1CFDF91CF911F910F9164
:100BA000FF90EF90DF90CF90BF90AF909F908F908D
:100BB00008955F926F927F928F929F92AF92BF92B1
:100BC000CF92DF92EF92FF920F931F93CF93DF9319
:100BD0008C01EB017A01690177FD31C157FD2FC10D
:100BE000DC0118968D919C911997681779070CF084
:100BF00026C11A968D919C911B97481759070CF0A6
:100C00001EC156968C915697823009F442C08330AB
:100C100009F44FC0813041F414968D919C91019755
:100C2000841B950B7B01EC01D801D696ED91FC91CC
:100C3000D797309709F446C0B701CE010995EC016A
:100C4000B12CA12CF80184AD882309F4F2C020ADA9
:100C500031AD42AD53ADB5016C0F7D1FD8015D962E
:100C60008D919C916817790708F0E9C0C8014B96EF
:100C7000DF91CF911F910F91FF90EF90DF90CF9078
:100C8000BF90AF909F908F907F906F905F900C94EB
:100C90000C05F8018481958101979C01261B370B77
:100CA000E901868197810197DC01A41BB50B7D01C9
:100CB000BBCFF801868197810197861B970BEA01CC
:100CC0007C01B2CFF80181A8F82DF3707F2ED49665
:100CD0009C90D497B12CA12C992009F46BC0D2968A
:100CE0006C90A62CB12CCE01B5010E941A119B016B
:100CF000F80153A8E52DF0E0C701BF010E941A11C9
:100D0000CB01A29EA001A39E500DB29E500D1124B6
:100D1000C41BD50BE69FA001E79F500DF69F500D19
:100D20001124E41AF50A85FE07C0A92DA150BB0BBA
:100D3000FD01E21BF30B9F0184FE07C0D801D5968D
:100D40008C918150990B861B970B86FC11C0492D05
:100D500050E0782F692FC901272F362F87FC0DC04F
:100D6000249FB001259F700D349F700D112416C073
:100D7000F80195A8492D50E0F1CF20FFF1CF682D63
:100D800060956370762E2F5F3F4F249FB001259FA3
:100D9000700D349F700D112480959095680F791F08
:100DA000659CC0011124869F5001879FB00C969FBF
:100DB000B00C1124B701872D827049F0D801D2966A
:100DC0008C918150990BFC01EC1BFD0BEF0170FE27
:100DD00007C0D801D3966C916150770B6E197F09CB
:100DE00082FC12C0F80182A990E0362F272FBE01A5
:100DF000C32FD22F83FC0DC0C89F9001C99F300D17
:100E0000D89F300D112411C0D801D3968C9190E059
:100E1000F1CFC0FFF1CF2196C89F9001C99F300D3F
:100E2000D89F300D112460957095E901C60FD71F2A
:100E300009CFC6010E9473059B01AC010CCFDF9165
:100E4000CF911F910F91FF90EF90DF90CF90BF90C7
:100E5000AF909F908F907F906F905F9008952091BA
:100E60008901260F3327331F21323105ECF42091FD
:100E7000AD01FC0190E080E0243069F082E008954B
:100E8000A09189012191AC0147595E4FA40FB52F64
:100E9000B11D2C930196861798F380918901680FF4
:100EA0006093890180E0089581E0089508958FEFAF
:100EB0009FEF08958FEF9FEF08958091620190E07A
:100EC0009195819591090895CF93DF93CB01EA0124
:100ED000642F0E942F07CE01DF91CF910895CF9309
:100EE000DF931F92CDB7DEB7698361E0CE01019633
:100EF0000E942F0781E090E00F90DF91CF9108953D
:100F00000895FC016370668B848195812681378109
:100F1000613039F0633029F09187808733872287E9
:100F20000895318720879387828708952F923F9273
:100F30004F925F926F927F928F929F92AF92BF92E9
:100F4000CF92DF92EF92FF920F931F93CF93DF9395
:100F5000CDB7DEB76A970FB6F894DEBF0FBECDBF30
:100F60009A8F898F7A8369834A01D22E18870F83DB
:100F70003701BC2CDC0159962D913C915A972115D3
:100F8000310509F015C118968D919C911997681734
:100F900079070CF0D7C11A968D919C914817590783
:100FA0000CF0D0C14C2C512CB6E0CB9E600D711DC5
:100FB00011247C876B87161617060CF0C3C1EA2D27
:100FC000F0E0FA87E98793E0EE0FFF1F9A95E1F7CB
:100FD000F88BEF87CF01840F951F181619060CF0B8
:100FE000B1C1A98DBA8D58968C91811104C0BFEA08
:100FF000BD1508F4D394A98DBA8DED91FC9111978C
:101000000284F385E02DCD010995B5E0DB9EC0019A
:101010001124E981FA81FC83EB83312C212C9C0182
:1010200028593F4F388F2F8B4A2D50E05E8B4D8BC8
:10103000EF89F88DE20DF31D44919E828D82D12CB3
:10104000C12C69817A81620D731D7A8B698B842F23
:1010500090E09C8B8B8BE98DFA8DA081B18140FF54
:1010600082C0F1E0BF126FC0AF126DC01C96ED914F
:10107000FC912F813885A4014C0D5D1D69897A8909
:10108000898D9A8D0995EB89FC89F595E7954E2F09
:101090005FEFC51AD50A6D817E818D899E89680FA3
:1010A000791F7E836D8398E0C916D10481F6AFEF76
:1010B0002A1A3A0AEB81FC81E40DF51DFC83EB83CF
:1010C000F5E02F16310409F0B3CF2F8138852615AE
:1010D0003705B9F0A98DBA8DED91FC91B1E0BB1245
:1010E00057C0AB1255C069817A816B5F7F4F008812
:1010F000F189E02D830128E030E0A401898D9A8DEB
:101100000995A98DBA8DED91FC9111970688F78903
:10111000E02DCD016A960FB6F894DEBF0FBECDBFAD
:10112000DF91CF911F910F91FF90EF90DF90CF90C3
:10113000BF90AF909F908F907F906F905F904F90F7
:101140003F902F9009941E96ED91FC91EF80F884CA
:1011500009851A8592014D815E816B817C81898D23
:101160009A8D099590CF2F8138852615370509F47A
:101170008ACF31E0B31207C0A31205C01C96ED91CF
:10118000FC91930178CF1E96ED91FC917301E0CF15
:101190006B857C85641975090684F785E02D7301DC
:1011A0000F8518899201A401898D9A8D0995A9CF7F
:1011B000F90134969491329745915491D91AB7E038
:1011C000DB9E400D511D1124F901259134913C8B7A
:1011D0002B8BFA0125903490FA0132967490319657
:1011E0003491398B329664903196449041E04C159D
:1011F00018F04A1508F07FC0662D062C000C770BFE
:101200007C836B83842D042C000C990B9E838D832F
:10121000A98DBA8DED91FC9111970284F385E02D93
:10122000CD010995512CD12CC12CEA2DF0E0FA8783
:10123000E9872B2D30E03C872B87A401440D511DFD
:1012400047FC5A95588F4F8B69817A81660D711DC5
:1012500067FC7A957E876D877989C71608F051CF2C
:101260002C2D30E04D815E81420F531FA985BA8538
:101270004A9FC0014B9F900D5A9F900D1124FC0175
:10128000E80DF91DF88BEF87852D612C4F89588D5E
:10129000420F531F5E8B4D8B671408F050C04424DF
:1012A0004394480E877041F4C1010196EB89FC8993
:1012B000E20DF31DD4901C01D7FE19C0A98DBA8D83
:1012C000ED91FC91662D70E0B1E0BB1219C0AB123C
:1012D00017C02D853E85620F731F0484F585E02DB0
:1012E0002F8138854D895E89898D9A8D0995DD0C10
:1012F0006394842DD1CF1E821D821C821B8288CFD5
:101300004B815C81640F751FAB85BC856A9FC001F2
:101310006B9F900D7A9F900D112469817A81680FDF
:10132000791F0684F785E02DEF80F88409851A85FA
:101330009D014F855889898D9A8D0995D8CF570C75
:10134000C3948ACF6A960FB6F894DEBF0FBECDBFA6
:10135000DF91CF911F910F91FF90EF90DF90CF9091
:10136000BF90AF909F908F907F906F905F904F90C5
:101370003F902F9008958F929F92AF92CF92EF92CD
:10138000FF920F931F93CF93DF93EC01262F898D4C
:101390009A8D009709F051C06A30D1F41D861C86E1
:1013A0008D8948E0849F900111248E859F85820F4E
:1013B000931F9F878E8781E090E0DF91CF911F91EF
:1013C0000F91FF90EF90CF90AF909F908F900895E6
:1013D0006D3089F3CC88AD888F898823C1F08C85E6
:1013E0009D8536E0C39E800D911D11244885598549
:1013F0004817590764F44E855F851D861C8638E0C2
:10140000A39EC0011124840F951F9F878E87EA88B1
:10141000FB88088919894E855F856C857D85CE019D
:101420000E9496072C898C859D8546E0249F800D1F
:10143000911D11249D878C87BECF6A3069F41D866B
:101440001C86FC013896E4912D898E859F85E29F4C
:10145000800D911D1124ADCF6D3009F4ACCFFC018E
:1014600034963491631708F4A6CF3296E491E617C8
:1014700008F4A1CFFC01329685909490462F431B2F
:10148000342F47E0349F800C911C1124F4013296D4
:1014900034913196E4913323A9F1EE2399F1CC886C
:1014A000F4013596E491AD884F89442301F10E2E65
:1014B000000CFF0BE30FF11DCE9EA001CF9E500D3F
:1014C00011246C857D85460F571F688579856417C3
:1014D00075076CF44E855F851D861C86FC01389669
:1014E000E491AE9E400D511D11245F874E87EA881E
:1014F000FB88088919894E855F856C857D85CE01BD
:101500000E949607F4013496E4912C898C859D8580
:10151000E29F800D911D11248DCF6F927F928F924B
:101520009F92AF92BF92CF92DF92EF92FF920F9372
:101530001F93CF93DF93EC016B015A0139014801EE
:10154000E881F9810284F385E02D0995E881F9812C
:101550000288F389E02D87019301A501B601CE0130
:101560000995A501480D591D41505109E881F9819E
:101570000288F389E02D9301B601CE010995E88137
:10158000F9810088F189E02D9401A501B601CE0111
:101590000995C60CD71CB60161507109E881F98123
:1015A0000088F189E02D9401A501CE010995E8811B
:1015B000F9810688F789E02DCE01DF91CF911F9147
:1015C0000F91FF90EF90DF90CF90BF90AF909F90E2
:1015D0008F907F906F9009946F927F928F929F92DD
:1015E000AF92BF92CF92DF92EF92FF920F931F9331
:1015F000CF93DF935C01EB016A0149013801870158
:10160000DC01ED91FC916217730719F564167506FC
:101610002CF0962D872D3A01C92ED82E9601261929
:1016200037092F5F3F4F048CF58DE02DA301BE01DC
:10163000C5010995DF91CF911F910F91FF90EF9018
:10164000DF90CF90BF90AF909F908F907F906F90E2
:1016500008954615570591F42617370724F0892D6C
:101660004B01C22FD82F9E01281939092F5F3F4FF8
:10167000068CF78DE02DA601B401DACF0284F38544
:10168000E02D0995D501ED91FC910488F589E02DB7
:1016900083019401A601BE01C5010995D501ED9113
:1016A000FC910688F789E02DC501DF91CF911F914C
:1016B0000F91FF90EF90DF90CF90BF90AF909F90F1
:1016C0008F907F906F900994EF92FF920F931F93EA
:1016D000DC011A960D911C911B9718962D913C9147
:1016E0001997ED91FC9100A0F1A1E02D7B0150E054
:1016F00040E070E060E009951F910F91FF90EF903E
:1017000008954F925F926F927F928F929F92AF92C5
:10171000BF92CF92DF92EF92FF920F931F93CF93DE
:10172000DF936C012B015A0139014801DC01ED9175
:10173000FC910284F385E02D0995E201640C751C8F
:10174000D601ED91FC91C615D7055CF40088F189AE
:10175000E02D87019401A501BE01C60109952196DE
:10176000EFCF0688F789E02DC601DF91CF911F9159
:101770000F91FF90EF90DF90CF90BF90AF909F9030
:101780008F907F906F905F904F9009948F929F926F
:10179000AF92BF92CF92DF92EF92FF920F931F937F
:1017A000CF93DF93EC015B014A016901E881F98184
:1017B0000284F385E02D099595012C0D3D1D2150E6
:1017C0003109E881F9810488F589E02D78018401E7
:1017D000A401B501CE010995E881F9810688F78950
:1017E000E02DCE01DF91CF911F910F91FF90EF90EF
:1017F000DF90CF90BF90AF909F908F9009948F9281
:101800009F92AF92BF92CF92DF92EF92FF920F938F
:101810001F93CF93DF93EC015B014A0169017801CB
:10182000E881F9810284F385E02D0995C80CD91C63
:10183000860101501109E881F9810488F589E02DBC
:101840009501A401B501CE010995E881F9810688C9
:10185000F789E02DCE01DF91CF911F910F91FF907D
:10186000EF90DF90CF90BF90AF909F908F900994B2
:10187000EF92FF920F931F93DC01ED91FC9100A07A
:10188000F1A1E02D09951F910F91FF90EF90089520
:101890000F931F93DC01ED91FC91068CF78DE02DE9
:1018A00009951F910F9108950F931F93DC01ED91FE
:1018B000FC91048CF58DE02D09951F910F910895F1
:1018C000DC01ED91FC910084F185E02D09942F92CB
:1018D0003F924F925F926F927F928F929F92AF92C0
:1018E000BF92CF92DF92EF92FF920F931F93CF930D
:1018F000DF9300D000D000D0CDB7DEB73C016A0145
:101900003E832D83FC82EB825801A41AB50AB7FEF0
:1019100003C0B194A194B1088D809E80861A970A65
:1019200097FE03C09194819491088A149B045CF003
:10193000902F812F0D811E819D838E839C2D8D2D57
:101940006B01692F782F0C151D055CF09D818E8130
:101950007E836D83692F782F902F812F8601C92E6A
:10196000D82E1601201A310A2B012D813E81421AF0
:10197000530A57FE03C0519441945108710137FE38
:1019800003C03FEFE31AF30AF594E7948D819E813B
:10199000861797075CF5A1E0B0E0BA83A983C0166B
:1019A000D1064CF1D301ED91FC910484F585E02D35
:1019B0002B813C81A8016D817E818A149B041CF0DF
:1019C0004D815E81B801C3010995E418F508F7FE61
:1019D0000AC02D813E8189819A81280F391F3E835B
:1019E0002D83E20CF31C0F5F1F4FD9CF2FEF3FEF7A
:1019F0003A832983D4CF26960FB6F894DEBF0FBE64
:101A0000CDBFDF91CF911F910F91FF90EF90DF90AD
:101A1000CF90BF90AF909F908F907F906F905F908E
:101A20004F903F902F900895089590E080E00895A2
:101A3000CF93DF93EC0186E391E0998388838CA1B7
:101A40009DA10E94251289A19AA197FD05C060E081
:101A5000DF91CF910C948B03DF91CF910895CF93B9
:101A6000DF93EC010E94180DCE01DF91CF910C9411
:101A700025120E94AE121F93CF93DF9385ED8093C2
:101A8000BC008091650190916601A0916701B091C1
:101A900068010796A11DB11D23E0B695A7959795FE
:101AA00087952A95D1F72091BC0024FD03C01092A0
:101AB000AD0152C04091650150916601609167018E
:101AC00070916801452B462B472B69F30097A105C0
:101AD000B10541F02AE22A95F1F700C00197A1096A
:101AE000B109E1CF80916401C1E0C0936301882313
:101AF00099F1D091B8001091BA008091BC008A7B16
:101B00008093BC0060E082E10E943F0360E083E1DB
:101B10000E943F031092AD01C093AF011092AE013D
:101B200061E082E10E943F0361E083E10E943F03A4
:101B30008091B9008E7F8093B9008091B9008D7F2C
:101B40008093B90088E48093B80085E48093BC005A
:101B50001093BA00D093B800DF91CF911F910895F0
:101B60001F920F920FB60F9211242F933F938F93D2
:101B70009F93AF93BF938091D6019091D701A0918D
:101B8000D801B091D9013091D50123E0230F2D3731
:101B900058F50196A11DB11D2093D5018093D60162
:101BA0009093D701A093D801B093D9018091DA0125
:101BB0009091DB01A091DC01B091DD010196A11DA6
:101BC000B11D8093DA019093DB01A093DC01B09307
:101BD000DD01BF91AF919F918F913F912F910F9018
:101BE0000FBE0F901F90189526E8230F0296A11D97
:101BF000B11DD2CF1F920F920FB60F9211242F93C7
:101C00003F934F935F936F937F938F939F93AF9384
:101C1000BF93EF93FF938091B900887F803609F4DA
:101C20004AC0F0F5883209F4A5C018F5803109F4EE
:101C300099C0B8F4882309F4F5C0883009F492C03B
:101C4000FF91EF91BF91AF919F918F917F916F9194
:101C50005F914F913F912F910F900FBE0F901F906A
:101C60001895883109F486C0803251F78093AC0111
:101C700014C0803409F49BC040F48033B9F3883336
:101C8000F9F68093AC0185ECAEC0803509F483C0D1
:101C9000883509F494C0883499F60E943B0DD0CF62
:101CA000883909F48AC038F5883729F050F4883625
:101CB00011F0803729F683E08093AD011092AB01DB
:101CC00055C0883809F479C0803919F0803809F096
:101CD000B7CF8091AB01803208F06FC0E091AB01CB
:101CE00081E08E0F8093AB018091BB00F0E0E5575F
:101CF000FE4F80833BC0803B39F0D0F4803A09F43A
:101D000077C0883A09F09CCF84E08093AD011092AF
:101D10008A0110928901F0E0E0E009958091890143
:101D200081110FC081E0809389011092690109C07F
:101D3000803C09F4A8CF883C09F4A5CF883B09F082
:101D40007FCFE0918A0181E08E0F80938A01F0E0DD
:101D5000E759FE4F80818093BB0090918A0180916A
:101D6000890129C08091D2018093BB0085EC8093CA
:101D7000BC0066CF9091D1018091D001981758F5A1
:101D8000E091D10181E08E0F8093D101F0E0E05528
:101D9000FE4F8081E9CFE091D10181E08E0F8093E9
:101DA000D1018091BB00F0E0E055FE4F808390911F
:101DB000D1018091D0019817C8F285E8D8CFE09181
:101DC000D10181E08E0F8093D1018091BB00F0E0C2
:101DD000E055FE4F80838091AF0181115ECF81E09D
:101DE0008093AE0184EA8093BC001092AD0128CFAD
:101DF00085EC8093BC001092AD018091AB018032E4
:101E000030F4E091AB01F0E0E557FE4F10826091B5
:101E1000AB0170E08BE891E0F0E0E0E00995109212
:101E2000AB010ECF1092AC0138CFCF93DF9310925D
:101E3000E9011092E8018AE091E09093E701809334
:101E4000E60128E230E03093EB012093EA018BE0D9
:101E500090E09093ED018093EC013093EF0120939B
:101E6000EE019093F1018093F0011092FC01109229
:101E7000F3011092F2011092F5011092F40181E049
:101E80008093FB018093FA012FEF3FEF3093F9012C
:101E90002093F8013093F7012093F6018093FD0120
:101EA0001092FE01109200021092FF0110920202A5
:101EB0001092090210921002109211021092120256
:101EC0001092130280930F0280930C0210920D0265
:101ED00092E090930E0280930102C8E2D5E0D09385
:101EE0000602C093050288E295E00E948911909352
:101EF0000B0280930A02009709F466C0FC019E0160
:101F0000119221503040E1F788EB91E09093040268
:101F10008093030286E090E090930802809307028A
:101F200080910202882341F061E086E00E948B03E9
:101F300060E086E00E943F03E7E1F6E0E491F0E034
:101F4000EE0FFF1FE95FF94F859194919093150271
:101F500080931402E9EFF5E0E491E093160286E342
:101F600091E09093E7018093E6011092170288E2D6
:101F7000809318028BE08093190210921A0210923B
:101F80001B0210921D0210921C021092220280E08D
:101F900098EF9093E1018093E00180EE97E09093B9
:101FA000E3018093E2018FE190E09093E50180935B
:101FB000E4018091EE019091EF019093DF01809315
:101FC000DE01DF91CF910895109206021092050272
:101FD00010920402109203029DCF789484B582601F
:101FE00084BD84B5816084BD85B5826085BD85B5BD
:101FF000816085BD80916E00816080936E0010923B
:1020000081008091810082608093810080918100B5
:102010008160809381008091800081608093800046
:102020008091B10084608093B1008091B0008160A4
:102030008093B00080917A00846080937A008091D0
:102040007A00826080937A0080917A008160809328
:102050007A0080917A00806880937A001092C100A3
:10206000809107029091080297FD08C061E00E94EC
:102070008B0360E0809107020E943F0381E0809320
:1020800002021092FD0120910902222341F1C09128
:102090000A02D0910B022150E9F030E050E040E01C
:1020A0006FEF7FEF80E090E00E942E11FE014091E3
:1020B000050250910602CF018C1B9D0B84179507DA
:1020C00060F44081429FC001439F900D1124908392
:1020D0003196EDCF30E020E0E9CF109209028091F7
:1020E000E0019091E1019093F9018093F8019093C0
:1020F000F7018093F60169E57EEC86EE91E00E949F
:10210000970580910A0290910B02892B11F00E9491
:10211000E10360ED77E080E090E00E94AD0460E0D4
:1021200084E00E948B0380E480937C0080917A009D
:10213000806480937A0080917A0086FDFCCF809144
:10214000780090917900C2E0D0E000E010E070E00B
:1021500060E086EE91E00E9497058091DE0190910B
:10216000DF019093F3018093F201D093F501C093C6
:10217000F40198ECE92E95E0F92EF70164916623BD
:1021800049F086EE91E00E94BB09FFEFEF1AFF0ACB
:10219000892B99F78091DE019091DF01019790934F
:1021A000DF018093DE01833D9F4F34F58091EE0186
:1021B0009091EF019093DF018093DE018091D30134
:1021C0009091D4010196833091055CF59093D401F0
:1021D0008093D301E091D301F091D401EE0FFF1F62
:1021E000E052FE4F808191819093F9018093F80134
:1021F0009093F7018093F60180910A0290910B026F
:10220000892B11F00E94E10362E370E080E090E02E
:102210000E94AD040115110509F499CF0E94000038
:1022200096CF1092D4011092D301D4CF86EE91E0D4
:102230000C94180D97FB072E16F4009407D077FD29
:1022400009D00E944D1107FC05D03EF49095819570
:102250009F4F0895709561957F4F0895052E97FBC8
:102260001EF400940E94451157FD07D00E94611191
:1022700007FC03D04EF40C944511509540953095D1
:1022800021953F4F4F4F5F4F0895909580957095E2
:1022900061957F4F8F4F9F4F0895AA1BBB1B51E144
:1022A00007C0AA1FBB1FA617B70710F0A61BB70BC6
:1022B000881F991F5A95A9F780959095BC01CD016B
:1022C0000895A1E21A2EAA1BBB1BFD010DC0AA1F77
:1022D000BB1FEE1FFF1FA217B307E407F50720F08F
:1022E000A21BB30BE40BF50B661F771F881F991F0A
:1022F0001A9469F760957095809590959B01AC0153
:10230000BD01CF010895EE0FFF1F0590F491E02D60
:1023100009940F931F93CF93DF938230910510F4AC
:1023200082E090E0E0912502F091260230E020E08A
:10233000B0E0A0E0309799F42115310509F44AC0C6
:10234000281B390B24303105D8F58A819B81611512
:10235000710589F1FB0193838283FE0111C04081E5
:1023600051810281138148175907E0F04817590736
:1023700099F4109761F012960C93129713961C9390
:102380003296CF01DF91CF911F910F910895009365
:10239000250210932602F4CF2115310551F0421782
:1023A000530738F0A901DB019A01BD01DF01F801F3
:1023B000C1CFEF01F9CF9093260280932502CDCFB4
:1023C000FE01E20FF31F819391932250310939836B
:1023D0002883D7CF2091230230912402232B41F46C
:1023E00020910201309103013093240220932302B3
:1023F00020910001309101012115310541F42DB7E3
:102400003EB74091040150910501241B350BE0912A
:102410002302F0912402E217F307A0F42E1B3F0BD6
:102420002817390778F0AC014E5F5F4F2417350746
:1024300048F04E0F5F1F5093240240932302819374
:1024400091939FCFF0E0E0E09CCFCF93DF93009794
:10245000E9F0FC01329713821282A0912502B0911B
:102460002602ED0130E020E01097A1F420813181B7
:10247000820F931F209123023091240228173907DD
:1024800009F061C0F0932402E0932302DF91CF9121
:102490000895EA01CE17DF07E8F54A815B819E01C6
:1024A00041155105B1F7E901FB83EA83499159913F
:1024B000C40FD51FEC17FD0761F48081918102964E
:1024C000840F951FE90199838883828193819B837F
:1024D0008A83F0E0E0E012968D919C91139700972B
:1024E000B9F52D913C911197CD010296820F931F62
:1024F00020912302309124022817390739F63097AA
:1025000051F51092260210922502B0932402A09356
:102510002302BCCFD383C28340815181840F951F96
:10252000C817D90761F44E5F5F4F88819981480FC2
:10253000591F518340838A819B8193838283211514
:10254000310509F0B0CFF0932602E09325029ECF2B
:10255000FD01DC01C0CF13821282D7CF81E090E071
:10256000F8940C94B31213E0C4E1D3E004C0FE016C
:102570000E9483112196C531D107C9F7F894FFCF86
:1025800000002702800000000000BB09DF04150DD9
:10259000140D390D5607600C380C540C480C670CA0
:1025A000560781078007FF0BC60B810B640BEC0AF3
:1025B0008D0A00000000BB09DF04150D140DD905BC
:1025C0005607600C380C540C480C670C56078107F2
:1025D0008007FF0BC60B810B9705EC0A8D0A180DBF
:0225E0002F0DBD
:00000001FF
